:100000000C9463000C9475080C949C080C948B0061
:100010000C948B000C948B000C948B000C948B0034
:100020000C948B000C948B000C948B000C948B0024
:100030000C948B000C948B000C948B000C948B0014
:100040000C94C3080C94DB000C948B000C948B0074
:100050000C948B000C948B000C948B000C948B00F4
:100060000C948B040C948B0000000008000201002B
:100070000003040700000000000000000102040863
:100080001020408001020408102001020408102002
:10009000040404040404040402020202020203032E
:1000A00003030303000000002300260029000000D2
:1000B0000000250028002B0000000000240027007D
:1000C0002A0029035E0411241FBECFEFD8E0DEBF53
:1000D000CDBF11E0A0E0B1E0E0EFF4E102C0059097
:1000E0000D92A633B107D9F726E0A6E3B1E001C02F
:1000F0001D92A839B207E1F710E0C6ECD0E004C0C9
:100100002297FE010E94720AC23CD107C9F70E94E1
:10011000610A0C94760A0C940000DC01ED91FD91CB
:100120008081ED91FD919081ED91FD916C916370D5
:100130008E2309F064609F2309F06860EAEAF0E02A
:10014000E60FF11D659565956D936D917D918D918E
:100150009D91099423C01AC012C016C010C01EC0C1
:1001600009C014C013C006C019C009C00DC007C023
:100170000DC014C062507040804090400BC0615070
:1001800070408040904006C06E5F01C06F5F7F4F3F
:100190008F4F9F4F9E938E937E936E930895809181
:1001A000CE059091CF050C948D008091CC05909157
:1001B000CD050C948D001F920F920FB60F92112453
:1001C0002F933F934F935F936F937F938F939F935F
:1001D000AF93BF93EF93FF93CF93DF93CDB7DEB78A
:1001E000A297DEBFCDBF2EB58091490190914A0103
:1001F000892B09F089C0822F8F7190E0909348017C
:1002000080934701822F90E035E0959587953A9548
:10021000E1F78130910541F08730910509F445C03F
:10022000009709F05BC0E0C08091470190914801C0
:10023000892B19F48091460136C080914701909135
:1002400048010197D1F480914101823030F4F89453
:1002500086E391E00E948D0001C0F89480913D01F9
:1002600078948EBDF89410923D0110923E01109248
:100270003F01109240017894B7C08091470190915E
:100280004801029709F0B0C08091AE059091AD058C
:10029000891B2091AD059091AE05921714F490E260
:1002A00001C090E0890F8EBD9FC02E3F69F420935E
:1002B0004B0110924C01109248011092470110928C
:1002C000AE051092AD0520C02F3FF1F49091AE0520
:1002D0008091AD05981388C05C9886C080934B01CF
:1002E000809147019091480180934C0181E090E01A
:1002F00090934A0180934901809147019091480170
:10030000181619060CF470C08091470190914801AD
:1003100018161906FCF48091490190914A018097C2
:1003200038F4E0914901F0914A01E55BFE4F2183E9
:100330008091490190914A01019690934A018093DE
:10034000490180914701909148010197909348019C
:10035000809347018091470190914801892B09F0D2
:1003600043C08091AE052091AD05992787FD9095FA
:1003700001968F719927332727FD309582179307B0
:1003800079F182E2EBE4F1E0DE01119601900D9249
:100390008A95E1F73091AE0522E23203D0011124B3
:1003A000A359BE4FFE01319601900D922A95E1F7B7
:1003B0008091AE058F5F8F718093AE058091AE0501
:1003C0009091AD05891B2091AD059091AE059217D6
:1003D00014F490E201C090E0890F85310CF05C9A32
:1003E00010924A0110924901A2960FB6F894DEBF0E
:1003F0000FBECDBFDF91CF91FF91EF91BF91AF9134
:100400009F918F917F916F915F914F913F912F912C
:100410000F900FBE0F901F90189510924A011092E6
:10042000490110924201109243011092440110922E
:10043000450110924601F89410923D0110923E0140
:1004400010923F011092400178948FEA95E00E944B
:1004500093061092AE051092AD0560E084E00C9416
:10046000C10962E080E10E94880920E044E064E183
:100470008FEA95E00E94C50784B1837D84B9249AF0
:1004800061E084E00E94880960E084E00E94C10984
:100490008CB58F7E8CBD8CB58C7F8CBD8CB580640B
:1004A0008CBD8CB580688CBD0E940D0240E060E080
:1004B0008FEA95E00E945F0664E071E08FEA95E0C4
:1004C0000E945E0A41E060E08FEA95E00E945F06CC
:1004D0006EE071E08FEA95E00C945E0AEF92FF9275
:1004E0000F931F93CF93DF93EC019981E92EF12CA9
:1004F0008881833081F018F4823001F13FC084306C
:1005000099F18E3FD9F5DF91CF911F910F91FF9017
:10051000EF900C940D029150903280F500E010E0C5
:10052000FE01E00FF11F62818FEA95E00E94EC0668
:100530000F5F1F4F0E151F059CF320C0EA94EF2894
:10054000E9F46A81462F50E075E0559547957A9514
:10055000E1F76F718FEA95E0DF91CF911F910F91D5
:10056000FF90EF900C945F068FEA95E0DF91CF91BA
:100570001F910F91FF90EF900C949306DF91CF9114
:100580001F910F91FF90EF900895CF92DF92EF921D
:10059000FF920F931F93CF93DF93CDB7DEB7A29750
:1005A0000FB6F894DEBF0FBECDBF9091AE0580911F
:1005B000AD059817C1F03091AD0522E23203F0018C
:1005C0001124E359FE4FDE01119601900D922A95F8
:1005D000E1F78091AD058F5F8F718093AD05CE01FE
:1005E00001960E946E020E940D0900914201109135
:1005F000430120914401309145016B017C01C01AF7
:10060000D10AE20AF30A9701860103331105210595
:10061000310584F026B122FB222720F931E023277F
:1006200020934601609342017093430180934401FB
:1006300090934501A2960FB6F894DEBF0FBECDBFD2
:10064000DF91CF911F910F91FF90EF90DF90CF90AE
:1006500008958F92AF92CF92EF920F93CF93DF9343
:100660001092B2051092B10581E391E09093B0052C
:100670008093AF05E8E08E2EF7E0AF2EA6E0CA2EFD
:10068000B5E0EB2E0FEF2FE04FEF69E08FEA95E03A
:100690000E94F2071092AE051092AD0562E082E072
:1006A0000E94880962E083E00E948809E2E9F0E0A4
:1006B000E491F0E0EE0FFF1FEC55FF4F8591949110
:1006C0009093370180933601EEE7F0E0E491E093F8
:1006D0003A01E3E9F0E0E491F0E0EE0FFF1FEC55A2
:1006E000FF4F859194919093390180933801EFE702
:1006F000F0E0E491E0933B0110923D0110923E0145
:1007000010923F011092400180ED97E00E9419097C
:10071000E0913601F0913701908180913A01982360
:1007200081E009F480E0E0913801F0913901908195
:1007300020913B01922309F0826080933C01C6E343
:10074000D1E0D093CD05C093CC0541E050E065EDFC
:1007500070E080E00E94550881E080934101D093D1
:10076000CF05C093CE0541E050E06FEC70E00E94F1
:1007700055088091410190E0019680934101DF91FD
:10078000CF910F91EF90CF90AF908F90089580917F
:10079000FF0590E020910006821B910908952091A9
:1007A00000068091FF05281750F4E22FF0E0EF5F7C
:1007B000F94F808190E02F5F2093000608958FEF1E
:1007C0009FEF0895E09100068091FF05E81730F44F
:1007D000F0E0EF5FF94F808190E008958FEF9FEF99
:1007E00008950895CF92DF92EF92FF920F931F9397
:1007F000CF93DF937C01CB018A012091DC0522237A
:1008000089F0EB016B01C40ED51ECC15DD0569F036
:100810006991D701ED91FC910190F081E02DC70124
:100820000995F3CF642F0E946204C801DF91CF9134
:100830001F910F91FF90EF90DF90CF900895CF938D
:10084000DF931F92CDB7DEB769832091DC052223A9
:10085000D1F02091DD05203240F021E030E0FC01B4
:100860003383228380E090E015C08091DE05E82F7D
:10087000F0E0E152FA4F998190838F5F8093DE051B
:100880008093DD0505C061E0CE0101960E946204FF
:1008900081E090E00F90DF91CF910895FC011382E9
:1008A000128248EE53E060E070E044835583668333
:1008B000778381E291E091838083089580ED95E0D4
:1008C0000C944E04613298F420918E06243089F401
:1008D00060934306FC0185E496E0DC012A2F281B87
:1008E000261718F421912D93F9CF80E0089581E027
:1008F000089582E0089585ED8093BC008091BC004E
:1009000084FDFCCF10928E06089585EC8093BC0088
:1009100010928E0608951F920F920FB60F92112417
:100920002F933F934F935F936F937F938F939F93F7
:10093000AF93BF93EF93FF938091B900887F803688
:1009400009F49EC078F5883209F45DC090F48031D6
:1009500009F456C038F4882309F4F5C0883009F446
:100960004FC0F5C0883109F44EC0803209F45FC031
:10097000EEC0803409F46AC058F4803309F457C0DB
:10098000883309F0E4C0809321060E948504DFC00B
:10099000803509F44FC0883509F45DC0883409F00A
:1009A000D6C0D3C0883909F4C4C0A8F4883709F484
:1009B00067C038F4883609F463C0803709F460C032
:1009C000C6C0883809F4B5C0803909F45FC08038E2
:1009D00009F0BDC05BC0803B09F483C038F4803AA5
:1009E00009F466C0883A09F47CC0B1C0803C09F4BF
:1009F000A4C0883C09F4A1C0883B09F487C0A7C003
:100A000080918D0610C090916606809165069817BA
:100A100070F5E091660681E08E0F80936606F0E047
:100A2000E959F94F80818093BB0085EC83C08093A6
:100A300021068BC0E091660681E08E0F80936606EA
:100A40008091BB00F0E0E959F94F808390916606F0
:100A5000809165066BC0E091660681E08E0F809301
:100A600066068091BB00F0E0E959F94F80838091E0
:100A70008C0681116AC081E080938B0684EA5EC097
:100A800083E080938E0610922206CFCF80912206BB
:100A9000803208F04EC0E091220681E08E0F8093F4
:100AA00022068091BB00F0E0ED5DF94F8083BDCF61
:100AB0000E94850480912206803230F4E091220663
:100AC000F0E0ED5DF94F10826091220670E0E09158
:100AD0008706F091880683E296E009951092220637
:100AE00036C084E080938E0610924406109243062E
:100AF000E0918906F0918A0609958091430681115B
:100B000005C081E08093430610924506E0914406BB
:100B100081E08E0F80934406F0E0EB5BF94F80811B
:100B20008093BB009091440680914306981708F487
:100B30007CCF85E88093BC000AC085EC8093BC0024
:100B400010928E0604C0109221060E947B04FF9131
:100B5000EF91BF91AF919F918F917F916F915F9135
:100B60004F913F912F910F900FBE0F901F901895AE
:100B7000EF92FF920F931F93CF93DF93EC01062F19
:100B8000F42E188589858F3F19F09A859111182FB9
:100B90008F818F3F29F480E491E00E94190943C0BE
:100BA00060E089890E94880960E08A890E9488093A
:100BB00060E08B890E94880960E08C890E94880926
:100BC00061E08F810E94C10960E08E810E94C109AD
:100BD00061E0812F0E94C1098C890E94F709E82EEB
:100BE00060E0812F0E94C10961E0812F0E94C1094C
:100BF00060E0812F0E94C10981E0E81649F361E0BD
:100C000089890E94880961E08A890E94880961E0D7
:100C10008B890E94880961E08C890E94880960E0C4
:100C20008F810E94C1096F2D8E810E94C109602FA2
:100C3000607189890E94C109602F60728A890E944F
:100C4000C109602F60748B890E94C109602F607890
:100C50008C890E94C10961E0812F0E94C10960E076
:100C6000812F0E94C109602F617089890E94C1098A
:100C7000602F62708A890E94C109602F64708B891D
:100C80000E94C109602F68708C890E94C10961E0CF
:100C9000812F0E94C10960E0812FDF91CF911F91C8
:100CA0000F91FF90EF900C94C10940E00C94B805AF
:100CB000FC01638D6D7F638F68600C9455060F9304
:100CC0001F93CF93DF93EC018E89841710F44FEFBD
:100CD000480F4D876C871E86FE01E40FF11D978932
:100CE000092F00748B85860F9F73890F883214F04B
:100CF000885202C087FD885D082B142F12702A8548
:100D000030E0812F90E02817390719F0CE010E94BA
:100D100058061A87602F6068CE01DF91CF911F912E
:100D20000F910C945506CF93DF93EC0189858F3F8B
:100D3000C1F082E08A8761E0CE010E9455061A86E2
:100D400061E0CE010E9455068F818F3F21F484E53A
:100D50009BE00E94190940E060E0CE010E945F061E
:100D60000BC061E0CE010E9455068F818F3F21F4B8
:100D700084E59BE00E9419091B86DF91CF910895BD
:100D80000F931F93CF93DF93EC01162F89858F3F2D
:100D900041F440E0CE01DF91CF911F910F910C946F
:100DA000B8050A851A8640E0CE010E94B80582E0A7
:100DB0008A8740E0612FCE010E94B8050A87DF9143
:100DC000CF911F910F910895FC01638D262F246010
:100DD000238F6C600C94C0061F93CF93DF93EC01BC
:100DE000162F8B85811103C08E85882329F04D85B0
:100DF0006C85CE010E945F061D3039F01A3029F053
:100E000041E0612FCE010E94B8051E868F852C859A
:100E10004D8581110EC02F5F2C871D3041F0332787
:100E200027FD30958D8990E0281739077CF01C86C6
:100E300009C021502C871A3011F027FF07C08D8977
:100E400081508C874F5F4D8781E08E872D853327BA
:100E500027FD30958E8990E0281739070CF01D8604
:100E600081E090E0DF91CF911F9108950F931F9340
:100E7000CF93DF93EC01062F617089890E94C1092D
:100E800010E015950795602F61708A890E94C1094D
:100E900015950795602F61708B890E94C109159582
:100EA0000795602F61708C890E94C109188589851A
:100EB0008F3F19F09A859111182F61E0812F0E94C0
:100EC000C10960E0812FDF91CF911F910F910C94A8
:100ED000C109FF920F931F93CF93DF93EC01423030
:100EE00010F410E001C018E0222319F0413009F499
:100EF000146072E1F72E8CE49DE10E941909FA94C6
:100F0000D1F760E08E810E94C10960E0802F0E94CD
:100F1000C10960E08E810E94C10963E0CE010E9498
:100F2000360788E893E10E94190963E0CE010E9428
:100F3000360786E990E00E94190963E0CE010E941D
:100F4000360786E990E00E94190962E0CE010E940E
:100F5000360786E990E00E941909612F6062CE0190
:100F60000E94550684E08B8FCE010E94E406CE01DC
:100F70000E94930682E08C8F66E0CE01DF91CF91D4
:100F80001F910F91FF900C945506EF92FF920F93D3
:100F90001F93CF93DF93EC01162FF42EE22E6D8B6F
:100FA0006D834E8B4C838F89860F898F888D860F3A
:100FB0008A8F0885CE010E94690709850F3F59F085
:100FC000198E80E48A8F82E08A872E2D4F2D612F23
:100FD000CE010E946907DF91CF911F910F91FF9081
:100FE000EF9008956F927F928F92AF92CF92EF928F
:100FF0000F931F93CF93DF93CDB7DEB73C01142F30
:101000008E2DF30166839FEF9783208701871286D9
:1010100013861486158616861786E18AC28AA38AE5
:10102000848A61E00E94880961E08C2D0E94880911
:1010300061E08A2D0E94880961E0882D0E9488095C
:10104000F301178A80E4808F84E1818F84E5828FA9
:1010500061E086810E9488091F3F41F061E0812F95
:101060000E94880960E0812F0E94C10961E0F301BC
:1010700080850E9488090F3F21F061E0802F0E9447
:10108000880920E041E064E1C3010E94C507F30143
:101090001783DF91CF911F910F91EF90CF90AF9079
:1010A0008F907F906F90089508958230E8F4E82F34
:1010B000F0E0EE0FFF1FE050FF4F7183608381303F
:1010C00041F0809169008C7F842B80936900E89ABD
:1010D000089580916900440F551F440F551F837F69
:1010E000842B80936900E99A08951F920F920FB69E
:1010F0000F9211242F933F934F935F936F937F939E
:101100008F939F93AF93BF93EF93FF93E091000171
:10111000F09101010995FF91EF91BF91AF919F91DE
:101120008F917F916F915F914F913F912F910F9090
:101130000FBE0F901F9018951F920F920FB60F922F
:1011400011242F933F934F935F936F937F938F93CC
:101150009F93AF93BF93EF93FF93E0910201F091C0
:1011600003010995FF91EF91BF91AF919F918F91ED
:101170007F916F915F914F913F912F910F900FBE93
:101180000F901F9018951F920F920FB60F92112477
:101190002F933F938F939F93AF93BF93809190062C
:1011A00090919106A0919206B091930630918F068E
:1011B00023E0230F2D3720F40196A11DB11D05C09A
:1011C00026E8230F0296A11DB11D20938F06809360
:1011D000900690939106A0939206B0939306809107
:1011E000940690919506A0919606B0919706019667
:1011F000A11DB11D8093940690939506A093960629
:10120000B0939706BF91AF919F918F913F912F918E
:101210000F900FBE0F901F9018952FB7F894609104
:1012200090067091910680919206909193062FBF3F
:1012300008958230910538F0880F991F880F991F03
:1012400005970197F1F70895789484B5826084BD7D
:1012500084B5816084BD85B5826085BD85B58160BA
:1012600085BDEEE6F0E0808181608083E1E8F0E01A
:101270001082808182608083808181608083E0E849
:10128000F0E0808181608083E1EBF0E08081846028
:101290008083E0EBF0E0808181608083EAE7F0E02A
:1012A000808184608083808182608083808181608E
:1012B00080838081806880831092C100089583308C
:1012C00081F028F4813099F08230A1F008958730C0
:1012D000A9F08830B9F08430D1F4809180008F7DFE
:1012E00003C0809180008F7780938000089584B53B
:1012F0008F7702C084B58F7D84BD08958091B00042
:101300008F7703C08091B0008F7D8093B0000895E7
:10131000CF93DF9390E0FC01E458FF4F2491FC0150
:10132000E057FF4F8491882349F190E0880F991F7F
:10133000FC01E854FF4FA591B49182559F4FFC01E9
:10134000C591D4919FB7611108C0F8948C912095F4
:1013500082238C93888182230AC0623051F4F894EE
:101360008C91322F309583238C938881822B8883B4
:1013700004C0F8948C91822B8C939FBFDF91CF9106
:1013800008950F931F93CF93DF931F92CDB7DEB7CE
:10139000282F30E0F901E859FF4F8491F901E45812
:1013A000FF4F1491F901E057FF4F04910023C9F05A
:1013B000882321F069830E945F096981E02FF0E0B2
:1013C000EE0FFF1FE255FF4FA591B4919FB7F89420
:1013D0008C91611103C01095812301C0812B8C93E6
:1013E0009FBF0F90DF91CF911F910F910895CF93E1
:1013F000DF93282F30E0F901E859FF4F8491F9017C
:10140000E458FF4FD491F901E057FF4FC491CC232A
:1014100091F081110E945F09EC2FF0E0EE0FFF1FA9
:10142000EC55FF4FA591B4912C912D2381E090E0D4
:1014300021F480E002C080E090E0DF91CF91089538
:10144000CF92DF92EF92FF920F931F93CF93DF9390
:101450007C016A01EB0100E010E00C151D0571F044
:101460006991D701ED91FC910190F081E02DC701C8
:101470000995892B19F00F5F1F4FEFCFC801DF913E
:10148000CF911F910F91FF90EF90DF90CF90089533
:101490006115710581F0DB010D900020E9F7AD01C8
:1014A00041505109461B570BDC01ED91FC91028024
:1014B000F381E02D099480E090E008950C94480AAF
:1014C00008950E9424090E94600A0E943102C0E02F
:1014D000D0E00E94C5022097E1F30E940000F9CFFE
:1014E000EE0FFF1F0590F491E02D0994F894FFCFC3
:1014F000540854085550412056302E393800537442
:10150000617274696E672075702E2E2E00000000C7
:10151000001F04F203C703CF03E203F1030000003E
:0615200000EC06200A00A9
:00000001FF
