:100000000C9463000C948C090C94B9090C948B002B
:100010000C948B000C948B000C948B000C948B0034
:100020000C948B000C948B000C948B000C948B0024
:100030000C948B000C948B000C948B000C948B0014
:100040000C94E6090C9417010C948B000C948B0013
:100050000C948B000C948B000C948B000C948B00F4
:100060000C9430050C948B00000000002400270045
:100070002A0000000000250028002B0000000000DE
:1000800023002600290004040404040404040202DA
:100090000202020203030303030301020408102007
:1000A0004080010204081020010204081020000012
:1000B0000007000201000003040600000000000029
:1000C0000000B3029D0411241FBECFEFD8E0DEBFB5
:1000D000CDBF11E0A0E0B1E0EEE8F7E102C005908D
:1000E0000D92A233B107D9F716E0A2E3B1E001C047
:1000F0001D92A839B107E1F710E0C6ECD0E004C0CA
:100100002297FE010E94C10BC23CD107C9F70E9491
:10011000670B0C94C50B0C940000A091C805B0911E
:10012000C905ED91FD918081ED91FD919081ED9159
:10013000FD916C9163708E2309F064609F2309F038
:100140006860EDEAF0E0E60FF11D659565956D9349
:100150006D917D918D919D91099423C01AC012C01B
:1001600016C010C01EC009C014C013C006C019C0FC
:1001700009C00DC007C00DC014C06250704080405F
:1001800090400BC0615070408040904006C06E5F50
:1001900001C06F5F7F4F8F4F9F4F9E938E937E93D3
:1001A0006E930895A091CA05B091CB05ED91FD9194
:1001B0008081ED91FD919081ED91FD916C91637045
:1001C0008E2309F064609F2309F06860E2EFF0E09D
:1001D000E60FF11D659565956D936D917D918D91FE
:1001E0009D91099423C01AC012C016C010C01EC031
:1001F00009C014C013C006C019C009C00DC007C093
:100200000DC014C062507040804090400BC06150DF
:1002100070408040904006C06E5F01C06F5F7F4FAE
:100220008F4F9F4F9E938E937E936E9308951F9250
:100230000F920FB60F9211242F933F934F936F930A
:100240007F938F939F93AF93BF93EF93FF93DF932E
:10025000CF93CDB7DEB7A297DEBFCDBF4EB58091AD
:10026000B3059091B405892B09F0CEC0242F30E05E
:10027000C9018F7190709093B6058093B50565E0C4
:10028000359527956A95E1F72130310549F02730FA
:10029000310509F487C02115310509F42FC19EC02D
:1002A0008091B5059091B605892B21F48091B70511
:1002B0008EBD24C18091B5059091B605019709F0D6
:1002C00059C08091C705823008F044C0F894ACEB67
:1002D000B5E0ED91FD918081ED91FD919081ED91E1
:1002E000FD916C9163708E2309F064609F2309F087
:1002F0006860E5E8F1E0E60FF11D659565956D93A1
:100300006D917D918D919D91099423C01AC012C069
:1003100016C010C01EC009C014C013C006C019C04A
:1003200009C00DC007C00DC014C0625070408040AD
:1003300090400BC0615070408040904006C06E5F9E
:1003400001C06F5F7F4F8F4F9F4F9E938E937E9321
:100350006E9301C0F89478948091C3058EBDF89493
:100360001092C3051092C4051092C5051092C605DF
:100370007894C4C08091B5059091B605029709F0B4
:10038000BDC02091900530918F0590918F0580918F
:100390009005891714F080E001C080E2231B280F2C
:1003A0002EBDACC04E3F79F440939105109292055A
:1003B0001092B6051092B5051092900580919005A7
:1003C00080938F0521C04F3FF9F490919005809163
:1003D0008F05981709F092C05C9890C02093910502
:1003E0008091B5059091B6058093920581E090E0EB
:1003F0009093B4058093B3058091B5059091B605AF
:10040000181619060CF47AC08091B5059091B605BE
:1004100018161906FCF48091B3059091B4058097E5
:1004200038F4E091B305F091B405EF56FA4F4183EB
:100430008091B3059091B40501969093B405809393
:10044000B3058091B5059091B60501979093B605D7
:100450008093B5058091B5059091B605892B09F07B
:100460004DC08091900520918F05992787FD90952B
:1004700001968F719070332727FD3095821793076F
:10048000C9F1DE011196E1E9F5E082E201900D92F9
:100490008150E1F780919005992787FD9095FC01A7
:1004A00035E0EE0FFF1F3A95E1F7880F991FE80F2F
:1004B000F91FE15BFE4FDE01119682E20D90019281
:1004C0008150E1F7809190058F5F8F718093900547
:1004D0002091900530918F0590918F058091900526
:1004E000891714F080E001C080E2231B280F25311A
:1004F0000CF05C9A1092B4051092B305A296DEBF80
:10050000CDBFCF91DF91FF91EF91BF91AF919F91BF
:100510008F917F916F914F913F912F910F900FBECF
:100520000F901F901895823021F0833079F080E091
:1005300008957093C9056093C80580E06DE870E088
:1005400041E050E00E94690981E008957093CB0575
:100550006093CA0581E062ED70E041E050E00E94E6
:10056000690981E008958F92AF92CF92EF920F9335
:100570001F9310923501109234018DE291E0909317
:1005800033018093320182E391E069E04FEF2FE085
:100590000FEF15E0E12EB6E0CB2EA7E0AA2EF8E093
:1005A0008F2E0E94070910929005809190058093EC
:1005B0008F0582E062E00E94810A83E062E00E948F
:1005C000810A48E850E0FA018491282F30E0220F98
:1005D000331F24583F4FF901859194919093BD05A5
:1005E0008093BC052CE930E0F90184918093C0052B
:1005F0004F5F5F4FFA018491E82FF0E0EE0FFF1F8D
:10060000E458FF4F859194919093BF058093BE0568
:100610002F5F3F4FF90184918093C1051092C3056C
:100620001092C4051092C5051092C60580ED97E0A2
:100630000E943C0AE091BC05F091BD05208140E09C
:1006400030E08091C00590E028233923232B09F066
:1006500041E0E091BE05F091BF05208130E080913E
:10066000C10590E028233923232B09F042604093F1
:10067000C20582E06CEB75E00E949302182F809314
:10068000C70583E06CEB75E00E949302180F10938E
:10069000C7051F910F91EF90CF90AF908F90089565
:1006A0001092B4051092B3051092B8051092B905D6
:1006B0001092BA051092BB051092B705F8941092EB
:1006C000C3051092C4051092C5051092C605789412
:1006D00082E391E00E944A08109290058091900573
:1006E00080938F0584E060E00E94C00A0895EF9235
:1006F000FF920F931F93CF93DF93FC018181E82E2C
:10070000FF248081833051F0843018F48230A9F5C1
:100710001AC0843059F18E3F81F52DC0C701019771
:10072000809758F58F01C0E0D0E007C082E391E0E8
:10073000F80161810E94000821960F5F1F4FCE15BE
:10074000DF05A4F31AC081E0E816F104B1F4628178
:1007500070E0AB0105E0559547950A95E1F782E316
:1007600091E06F7170700E94C60707C082E391E04C
:100770000E944A0802C00E945003DF91CF911F914E
:100780000F91FF90EF900895EF92FF920F931F93B8
:10079000DF93CF93CDB7DEB7A2970FB6F894DEBF45
:1007A0000FBECDBF9091900580918F05981711F1E4
:1007B00080918F05992787FD9095FC0135E0EE0F1C
:1007C000FF1F3A95E1F7880F991FE80FF91FDE0127
:1007D0001196E15BFE4F82E201900D928150E1F7AC
:1007E00080918F058F5F8F7180938F05CE01019669
:1007F0000E9477030E942E0A9B01AC018091B805EC
:100800009091B905A091BA05B091BB0579018A0113
:10081000E81AF90A0A0B1B0BD801C701C397A105F7
:10082000B1057CF086B18695869580958170809320
:10083000B7052093B8053093B9054093BA05509396
:10084000BB05A2960FB6F894DEBF0FBECDBFCF9109
:10085000DF911F910F91FF90EF9008950F931F93D9
:1008600080E162E00E94810A02E311E0C80164E1D4
:1008700044E020E00E94DA0884B1837D84B9249AA0
:1008800084E061E00E94810A84E060E00E94C00A86
:100890008CB58F7E8CBD8CB58C7F8CBD8CB5806407
:1008A0008CBD8CB580688CBD0E945003C80160E08F
:1008B00040E00E94C607C80160E071E00E94BC0BE6
:1008C000C80160E041E00E94C607C8016AE071E02B
:1008D0000E94BC0B1F910F9108952091ED0530E00F
:1008E0008091EC05281B3109C90108954091EC0560
:1008F0008091ED05481718F02FEF3FEF0AC0E42F65
:10090000F0E0E453FA4F8081282F30E04F5F4093AE
:10091000EC05C9010895E091EC058091ED05E8171B
:1009200018F0EFEFFFEF06C0F0E0E453FA4F8081DC
:10093000E82FF0E0CF010895089510921406109268
:10094000130688EE93E0A0E0B0E080931506909344
:100950001606A0931706B09318068DE191E09093C8
:100960001206809311060895CF92DF92EF92FF92C4
:100970000F931F93CF93DF937C016B018A018091CA
:1009800010068823A1F0C0E0D0E00DC0D701ED91A2
:10099000FC91D601AC0FBD1F0190F081E02DC70185
:1009A0006C9109952196C017D10780F304C0CB0143
:1009B000642F0E941505C801DF91CF911F910F91FF
:1009C000FF90EF90DF90CF900895DF93CF930F9239
:1009D000CDB7DEB7FC016983809110068823C9F08A
:1009E00080910F06803238F081E090E0938382831B
:1009F00020E030E015C080910E06E82FF0E0E251D3
:100A0000FA4F998190838F5F80930E0680930F0633
:100A100005C0CE01019661E00E94150521E030E09D
:100A2000C9010F90CF91DF910895482F613210F0E6
:100A300081E0089580911D06843011F082E00895D0
:100A400060936806A7E4B6E0842F9C01F90102C018
:100A500081918D938E2F841B8617D0F380E00895AB
:100A60001F920F920FB60F9211242F933F934F9323
:100A70005F936F937F938F939F93AF93BF93EF9306
:100A8000FF938091B90090E0887F90708036910547
:100A900009F4F2C081369105CCF58832910509F44C
:100AA0007BC089329105B4F48031910509F46FC09F
:100AB000813191053CF4009709F447C1089709F08A
:100AC0004FC165C08831910509F466C0809709F06F
:100AD00047C182C08034910509F4A4C081349105D6
:100AE00044F48033910509F482C0C89709F038C1F5
:100AF00089C08035910509F489C08835910509F4CC
:100B000096C08834910509F02BC1AEC08839910593
:100B100009F413C189399105ECF48837910509F47A
:100B2000ABC0893791054CF48836910509F4A4C00F
:100B30008037910509F014C19FC08838910509F4E8
:100B4000FCC08039910509F49DC08038910509F0F9
:100B500007C198C0803B910509F4C6C0813B91054F
:100B60004CF4803A910509F49FC0883A910509F048
:100B7000F7C0BAC0803C910509F4E3C0883C9105F8
:100B800009F4DFC0883B910509F0EAC0C2C080913A
:100B90001E068093BB00CFC090914506809146060B
:100BA000981768F490914506E92FF0E0EB5DF94F56
:100BB00080818093BB009F5F90934506BCC080916D
:100BC0001F06882309F44BC085ED8093BC008091FB
:100BD000BC0084FDFCCFC2C080E280938A0685ED14
:100BE0008093BC008091BC0084FDFCCFB7C080E343
:100BF00080938A0685ED8093BC008091BC0084FDC3
:100C0000FCCFACC088E380938A069BC080914506E8
:100C10009091BB00E82FF0E0EB5DF94F90838F5F80
:100C200080934506909145068091460682C080914A
:100C300045069091BB00E82FF0E0EB5DF94F908303
:100C40008F5F8093450680911F06882341F085EDD4
:100C50008093BC008091BC0084FDFCCF7FC081E00C
:100C60008093200684EA6EC085ED8093BC0080915D
:100C7000BC0084FDFCCF72C083E080931D061092FF
:100C8000890659C080918906803208F056C080914B
:100C900089069091BB00E82FF0E0E759F94F908367
:100CA0008F5F8093890647C080918906803230F437
:100CB000E0918906F0E0E759F94F108285ED8093C5
:100CC000BC008091BC0084FDFCCF10921D06609199
:100CD0008906E0912306F091240689E696E070E00B
:100CE0000995109289062DC084E080931D0610920C
:100CF000670610926806E0912106F0912206099598
:100D000080916806882329F481E080936806109218
:100D1000470690916706E92FF0E0E95BF94F808183
:100D20008093BB009F5F90936706909167068091C8
:100D30006806981710F485EC01C085E88093BC0024
:100D40000FC085EC8093BC0009C010928A0685ED27
:100D50008093BC008091BC0084FDFCCF10921D06E6
:100D6000FF91EF91BF91AF919F918F917F916F9183
:100D70005F914F913F912F910F900FBE0F901F9059
:100D800018950F931F93CF93DF93EC01062F61709B
:100D900089890E94C00A0695602F61708A890E9425
:100DA000C00A0695602F61708B890E94C00A10E00E
:100DB000159507950170639689816397602F0E944E
:100DC000C00A088599859F3F19F08A858111092FEE
:100DD000802F61E00E94C00A802F60E00E94C00A5C
:100DE000DF91CF911F910F910895EF92FF920F9392
:100DF0001F93CF93DF93EC01062FE42EF88499859F
:100E00009F3F19F08A858111F92E8F818F3F29F438
:100E100080E491E00E943C0A42C0898960E00E941F
:100E2000810A8A8960E00E94810A8B8960E00E94C1
:100E3000810A8C8960E00E94810A8F8161E00E94B2
:100E4000C00A8E8160E00E94C00A8F2D61E00E947E
:100E5000C00A8C890E94140B182F8F2D60E00E940D
:100E6000C00A8F2D61E00E94C00A8F2D60E00E94B1
:100E7000C00A113051F3898961E00E94810A8A8990
:100E800061E00E94810A8B8961E00E94810A8C895D
:100E900061E00E94810A8F8160E00E94C00A8E8119
:100EA0006E2D0E94C00A602F607189890E94C00A5D
:100EB000602F60728A890E94C00A602F60748B89DB
:100EC0000E94C00A602F60788C890E94C00A8F2D12
:100ED00061E00E94C00A8F2D60E00E94C00A602F6E
:100EE000617089890E94C00A602F62708A890E949D
:100EF000C00A602F64708B890E94C00A08708C89B8
:100F0000602F0E94C00A8F2D61E00E94C00A8F2DC1
:100F100060E00E94C00ADF91CF911F910F91FF9076
:100F2000EF9008950F931F93CF93DF93EC01062F5B
:100F300089858F3F29F4CE0140E00E94F5060EC05E
:100F40001A851A86CE0140E00E94F50682E08A8763
:100F5000CE01602F40E00E94F5061A87DF91CF9105
:100F60001F910F910895FC01638D862F8460838FFC
:100F70006C60CF010E9492070895FC01638D6D7F24
:100F8000638F686040E00E94F5060895FF920F931A
:100F90001F93CF93DF93EC01042F8E89841710F4F5
:100FA000082F01500D876C871E86202F30E0FE0130
:100FB000E20FF31FF7881B85160F8F2D8F73180F05
:100FC00018320CF0185217FD185D8A8590E02270D7
:100FD00030708217930719F0CE010E94BD0702708E
:100FE0000A8780E4F8221F291068CE01612F40E0B3
:100FF0000E94F506DF91CF911F910F91FF90089508
:101000001F93CF93DF93EC01162F8B85882319F460
:101010008E85882329F0CE016C854D850E94C607F8
:101020001D3039F01A3029F0CE01612F41E00E94C5
:10103000F5061E868F852C85882371F42F5F2C87FB
:101040001D3041F0332727FD30958D8990E028171A
:10105000390784F01C8609C021502C871A3011F002
:1010600027FF08C08D8981508C878D858F5F8D8784
:1010700081E08E872D85332727FD30958E8990E07E
:10108000281739070CF01D8681E090E0DF91CF91A1
:101090001F910895CF93DF93EC0189858F3FD1F0A5
:1010A00082E08A87CE0161E040E00E94F5061A8660
:1010B000CE0161E040E00E94F5068F818F3F21F470
:1010C00084E59BE00E943C0ACE0160E040E00E9483
:1010D000C6070CC0CE0161E040E00E94F5068F819A
:1010E0008F3F21F484E59BE00E943C0A1B86DF9140
:1010F000CF910895FF920F931F93CF93DF93EC014D
:10110000F02E423010F008E001C000E0222319F078
:10111000413009F4046010E08CE49DE10E943C0A37
:101120001F5F1231C9F78E8160E00E94C00A8F2DC7
:1011300060E00E94C00A8E8160E00E94C00ACE0179
:1011400063E00E94C10688E893E10E943C0ACE0158
:1011500063E00E94C10686E990E00E943C0ACE014D
:1011600063E00E94C10686E990E00E943C0ACE013D
:1011700062E00E94C10686E990E00E943C0A00629B
:10118000CE01602F40E00E94F50684E08B8FCE01F7
:101190000E94B307CE010E944A0882E08C8FCE01E4
:1011A00066E040E00E94F506DF91CF911F910F911C
:1011B000FF900895EF92FF920F931F93CF93DF93C9
:1011C000EC01162FF42EE22E6D8B6D834E8B4C832B
:1011D0008F89860F898F888D860F8A8FCE0108852B
:1011E0000E947A0809850F3F59F0198E80E48A8F92
:1011F00082E08A87CE01612F4F2D2E2D0E947A0822
:10120000DF91CF911F910F91FF90EF9008956F9212
:101210007F928F92AF92CF92EF920F931F93DF93B3
:10122000CF93CDB7DEB73C01142F8E2DF30166832B
:101230009FEF978320870187128613861486158671
:1012400016861786E18AC28AA38A848A61E00E9490
:10125000810A8C2D61E00E94810A8A2D61E00E9442
:10126000810A882D61E00E94810AF301178A80E4D7
:10127000808F84E1818F84E5828F868161E00E9486
:10128000810A1F3F41F0812F61E00E94810A812F76
:1012900060E00E94C00AF301808561E00E94810A3B
:1012A0000F3F21F0802F61E00E94810AC30164E1B9
:1012B00041E020E00E94DA08F3011783CF91DF912B
:1012C0001F910F91EF90CF90AF908F907F906F9084
:1012D0000895823000F5E82FF0E0EE0FFF1FE5578C
:1012E000F94F71836083882319F08130A1F408C01D
:1012F000809169008C7F842B80936900E89A08951F
:1013000080916900440F551F440F551F837F842B24
:1013100080936900E99A08951F920F920FB60F9279
:1013200011242F933F934F935F936F937F938F93EA
:101330009F93AF93BF93EF93FF9380918B06909110
:101340008C06892B29F0E0918B06F0918C0609958B
:10135000FF91EF91BF91AF919F918F917F916F918D
:101360005F914F913F912F910F900FBE0F901F9063
:1013700018951F920F920FB60F9211242F933F933F
:101380004F935F936F937F938F939F93AF93BF938D
:10139000EF93FF9380918D0690918E06892B29F013
:1013A000E0918D06F0918E060995FF91EF91BF9126
:1013B000AF919F918F917F916F915F914F913F91ED
:1013C0002F910F900FBE0F901F9018951F920F92A4
:1013D0000FB60F9211242F933F938F939F93AF9348
:1013E000BF938091930690919406A0919506B09139
:1013F0009606309197060196A11DB11D232F2D5FF2
:101400002D3720F02D570196A11DB11D2093970671
:101410008093930690939406A0939506B0939606B6
:1014200080918F0690919006A0919106B0919206BE
:101430000196A11DB11D80938F0690939006A093F5
:101440009106B0939206BF91AF919F918F913F917A
:101450002F910F900FBE0F901F9018958FB7F89493
:1014600020919306309194064091950650919606EE
:101470008FBFB901CA010895019739F0880F991FEC
:10148000880F991F02970197F1F70895789484B512
:10149000826084BD84B5816084BD85B5826085BD70
:1014A00085B5816085BDEEE6F0E080818160808356
:1014B000E1E8F0E010828081826080838081816039
:1014C0008083E0E8F0E0808181608083E1EBF0E000
:1014D000808184608083E0EBF0E0808181608083A4
:1014E000EAE7F0E08081846080838081826080838D
:1014F0008081816080838081806880831092C100B8
:101500000895CF93DF93482F50E0CA0186569F4F2E
:10151000FC0134914A575F4FFA018491882369F1A5
:1015200090E0880F991FFC01E859FF4FA591B491F5
:10153000FC01EE58FF4FC591D491662351F42FB7AB
:10154000F8948C91932F909589238C93888189238B
:101550000BC0623061F42FB7F8948C91932F909563
:1015600089238C938881832B88832FBF06C09FB7E4
:10157000F8948C91832B8C939FBFDF91CF9108952A
:10158000482F50E0CA0182559F4FFC012491CA01A7
:1015900086569F4FFC0194914A575F4FFA01349150
:1015A000332309F440C0222351F1233071F0243059
:1015B00028F42130A1F0223011F514C02630B1F00A
:1015C0002730C1F02430D9F404C0809180008F7797
:1015D00003C0809180008F7D8093800010C084B50F
:1015E0008F7702C084B58F7D84BD09C08091B00023
:1015F0008F7703C08091B0008F7D8093B000E32F80
:10160000F0E0EE0FFF1FEE58FF4FA591B4912FB7FA
:10161000F894662321F48C919095892302C08C91D3
:10162000892B8C932FBF0895682F70E0CB018255D2
:101630009F4FFC012491CB0186569F4FFC014491A2
:101640006A577F4FFB019491992319F420E030E011
:101650003CC0222351F1233071F0243028F4213092
:10166000A1F0223011F514C02630B1F02730C1F0BE
:101670002430D9F404C0809180008F7703C080911A
:1016800080008F7D8093800010C084B58F7702C06A
:1016900084B58F7D84BD09C08091B0008F7703C071
:1016A0008091B0008F7D8093B000892F90E0880FEB
:1016B000991F84589F4FFC01A591B4918C9120E013
:1016C00030E0842311F021E030E0C9010895CF9388
:1016D000DF930E94460A0E942E04C0E0D0E00E94E0
:1016E000C4032097E1F30E940000F9CFCF92DF926C
:1016F000EF92FF920F931F93CF93DF937C016B01C7
:101700008A01C0E0D0E00FC0D6016D916D01D70114
:10171000ED91FC910190F081E02DC7010995C80F72
:10172000D91F015010400115110571F7CE01DF914D
:10173000CF911F910F91FF90EF90DF90CF90089580
:10174000CF93DF93EC016115710519F420E030E0CF
:101750000FC0DB010D900020E9F71197A61BB70B16
:10176000E881F9810280F381E02DAD0109959C01AA
:10177000C901DF91CF9108950E94A00B0895EE0F4B
:0E178000FF1F0590F491E02D0994F894FFCF1F
:10178E005550412056302E393800537461727469A9
:10179E006E672075702E2E2E0000000000E504B43A
:1017AE00046D0476048B049C04000000000008768F
:0217BE000B001E
:00000001FF
